{
  "_format": "hh3-artifact-1",
  "contractName": "CourseManager",
  "sourceName": "contracts/CourseManager.sol",
  "abi": [
    {
      "anonymous": false,
      "inputs": [
        {
          "indexed": true,
          "internalType": "uint256",
          "name": "courseId",
          "type": "uint256"
        },
        {
          "indexed": true,
          "internalType": "address",
          "name": "buyer",
          "type": "address"
        }
      ],
      "name": "BuyerAdded",
      "type": "event"
    },
    {
      "anonymous": false,
      "inputs": [
        {
          "indexed": true,
          "internalType": "uint256",
          "name": "courseId",
          "type": "uint256"
        },
        {
          "indexed": true,
          "internalType": "address",
          "name": "author",
          "type": "address"
        },
        {
          "indexed": false,
          "internalType": "string",
          "name": "title",
          "type": "string"
        },
        {
          "indexed": false,
          "internalType": "uint256",
          "name": "price",
          "type": "uint256"
        }
      ],
      "name": "CourseCreated",
      "type": "event"
    },
    {
      "inputs": [],
      "name": "TSK",
      "outputs": [
        {
          "internalType": "contract IERC20",
          "name": "",
          "type": "address"
        }
      ],
      "stateMutability": "view",
      "type": "function"
    },
    {
      "inputs": [
        {
          "internalType": "uint256",
          "name": "_courseId",
          "type": "uint256"
        },
        {
          "internalType": "uint256",
          "name": "_amount",
          "type": "uint256"
        }
      ],
      "name": "buyCourse",
      "outputs": [],
      "stateMutability": "nonpayable",
      "type": "function"
    },
    {
      "inputs": [
        {
          "internalType": "uint256",
          "name": "",
          "type": "uint256"
        }
      ],
      "name": "courseAuthors",
      "outputs": [
        {
          "internalType": "address",
          "name": "",
          "type": "address"
        }
      ],
      "stateMutability": "view",
      "type": "function"
    },
    {
      "inputs": [
        {
          "internalType": "uint256",
          "name": "",
          "type": "uint256"
        },
        {
          "internalType": "uint256",
          "name": "",
          "type": "uint256"
        }
      ],
      "name": "courseBuyers",
      "outputs": [
        {
          "internalType": "address",
          "name": "",
          "type": "address"
        }
      ],
      "stateMutability": "view",
      "type": "function"
    },
    {
      "inputs": [
        {
          "internalType": "uint256",
          "name": "_courseId",
          "type": "uint256"
        },
        {
          "internalType": "string",
          "name": "_title",
          "type": "string"
        },
        {
          "internalType": "uint256",
          "name": "_price",
          "type": "uint256"
        }
      ],
      "name": "createCourse",
      "outputs": [],
      "stateMutability": "nonpayable",
      "type": "function"
    },
    {
      "inputs": [
        {
          "internalType": "uint256",
          "name": "_courseId",
          "type": "uint256"
        }
      ],
      "name": "getCourseAuthor",
      "outputs": [
        {
          "internalType": "address",
          "name": "",
          "type": "address"
        }
      ],
      "stateMutability": "view",
      "type": "function"
    },
    {
      "inputs": [
        {
          "internalType": "uint256",
          "name": "_courseId",
          "type": "uint256"
        }
      ],
      "name": "getCourseBuyers",
      "outputs": [
        {
          "internalType": "address[]",
          "name": "",
          "type": "address[]"
        }
      ],
      "stateMutability": "view",
      "type": "function"
    },
    {
      "inputs": [
        {
          "internalType": "uint256",
          "name": "_courseId",
          "type": "uint256"
        },
        {
          "internalType": "address",
          "name": "_buyer",
          "type": "address"
        }
      ],
      "name": "isBuyerInCourse",
      "outputs": [
        {
          "internalType": "bool",
          "name": "",
          "type": "bool"
        }
      ],
      "stateMutability": "view",
      "type": "function"
    }
  ],
  "bytecode": "0x6080604052348015600e575f5ffd5b50610b2b8061001c5f395ff3fe608060405234801561000f575f5ffd5b5060043610610085575f3560e01c8063bb895cdf11610058578063bb895cdf14610111578063d7237f0214610134578063faa4024f14610147578063fbc0173514610167575f5ffd5b80632a016cd81461008957806354588dc3146100b957806396f858e2146100d457806399dbff01146100fc575b5f5ffd5b61009c6100973660046108b4565b61018f565b6040516001600160a01b0390911681526020015b60405180910390f35b61009c735f47394fb6c50b80eea9a388142b5165b143156581565b61009c6100e23660046108d4565b60016020525f90815260409020546001600160a01b031681565b61010f61010a3660046108b4565b6101c2565b005b61012461011f3660046108eb565b6105ea565b60405190151581526020016100b0565b61010f610142366004610938565b610656565b61015a6101553660046108d4565b610730565b6040516100b091906109fe565b61009c6101753660046108d4565b5f908152600160205260409020546001600160a01b031690565b5f602052815f5260405f2081815481106101a7575f80fd5b5f918252602090912001546001600160a01b03169150829050565b604051636eb1769f60e11b81523360048201523060248201528190735f47394fb6c50b80eea9a388142b5165b14315659063dd62ed3e90604401602060405180830381865afa158015610217573d5f5f3e3d5ffd5b505050506040513d601f19601f8201168201806040525081019061023b9190610a49565b10156102855760405162461bcd60e51b81526020600482015260146024820152734e6f7420656e6f75676820616c6c6f77616e636560601b60448201526064015b60405180910390fd5b6040516370a0823160e01b81523360048201528190735f47394fb6c50b80eea9a388142b5165b1431565906370a0823190602401602060405180830381865afa1580156102d4573d5f5f3e3d5ffd5b505050506040513d601f19601f820116820180604052508101906102f89190610a49565b101561033f5760405162461bcd60e51b81526020600482015260166024820152754e6f7420656e6f7567682054534b2062616c616e636560501b604482015260640161027c565b60015f61034c8284610a60565b6040516323b872dd60e01b815233600482015230602482015260448101859052909150735f47394fb6c50b80eea9a388142b5165b1431565906323b872dd906064016020604051808303815f875af11580156103aa573d5f5f3e3d5ffd5b505050506040513d601f19601f820116820180604052508101906103ce9190610a7f565b61041a5760405162461bcd60e51b815260206004820152601760248201527f54534b207472616e7366657246726f6d206661696c6564000000000000000000604482015260640161027c565b5f848152600160205260409081902054905163a9059cbb60e01b81526001600160a01b03909116600482015260248101829052735f47394fb6c50b80eea9a388142b5165b14315659063a9059cbb906044016020604051808303815f875af1158015610488573d5f5f3e3d5ffd5b505050506040513d601f19601f820116820180604052508101906104ac9190610a7f565b6104f85760405162461bcd60e51b815260206004820152601d60248201527f54534b207472616e7366657220746f20617574686f72206661696c6564000000604482015260640161027c565b5f848152602081905260408120905b815481101561058657336001600160a01b031682828154811061052c5761052c610aa5565b5f918252602090912001546001600160a01b03160361057e5760405162461bcd60e51b815260206004820152600e60248201526d105b1c9958591e48189bdd59da1d60921b604482015260640161027c565b600101610507565b505f85815260208181526040808320805460018101825590845291832090910180546001600160a01b031916339081179091559051909187917fd28f937e71e8a89ddbefb8937335b2ae03fb74ce63dd6a6f316724c5a7e6c3dc9190a35050505050565b5f828152602081905260408120815b815481101561064a57836001600160a01b031682828154811061061e5761061e610aa5565b5f918252602090912001546001600160a01b03160361064257600192505050610650565b6001016105f9565b505f9150505b92915050565b5f83116106995760405162461bcd60e51b8152602060048201526011602482015270125b9d985b1a590818dbdd5c9cd9481251607a1b604482015260640161027c565b5f83815260208181526040808320805460018082018355918552838520018054336001600160a01b03199182168117909255888652919093529220805490921681179091556106e790610797565b336001600160a01b0316837f27b444394f1a7b0aa73d468ff76433d70ccbd1517709b5a2b06eaf249a4ddcf08484604051610723929190610ab9565b60405180910390a3505050565b5f818152602081815260409182902080548351818402810184019094528084526060939283018282801561078b57602002820191905f5260205f20905b81546001600160a01b0316815260019091019060200180831161076d575b50505050509050919050565b6001600160a01b0381166107e65760405162461bcd60e51b8152602060048201526016602482015275496e76616c696420617574686f72206164647265737360501b604482015260640161027c565b60405163a9059cbb60e01b81526001600160a01b0382166004820152678ac7230489e800006024820152735f47394fb6c50b80eea9a388142b5165b14315659063a9059cbb906044016020604051808303815f875af115801561084b573d5f5f3e3d5ffd5b505050506040513d601f19601f8201168201806040525081019061086f9190610a7f565b6108b15760405162461bcd60e51b81526020600482015260136024820152721514d2c81d1c985b9cd9995c8819985a5b1959606a1b604482015260640161027c565b50565b5f5f604083850312156108c5575f5ffd5b50508035926020909101359150565b5f602082840312156108e4575f5ffd5b5035919050565b5f5f604083850312156108fc575f5ffd5b8235915060208301356001600160a01b0381168114610919575f5ffd5b809150509250929050565b634e487b7160e01b5f52604160045260245ffd5b5f5f5f6060848603121561094a575f5ffd5b83359250602084013567ffffffffffffffff811115610967575f5ffd5b8401601f81018613610977575f5ffd5b803567ffffffffffffffff81111561099157610991610924565b604051601f8201601f19908116603f0116810167ffffffffffffffff811182821017156109c0576109c0610924565b6040528181528282016020018810156109d7575f5ffd5b816020840160208301375f9181016020019190915293969395505050506040919091013590565b602080825282518282018190525f918401906040840190835b81811015610a3e5783516001600160a01b0316835260209384019390920191600101610a17565b509095945050505050565b5f60208284031215610a59575f5ffd5b5051919050565b8181038181111561065057634e487b7160e01b5f52601160045260245ffd5b5f60208284031215610a8f575f5ffd5b81518015158114610a9e575f5ffd5b9392505050565b634e487b7160e01b5f52603260045260245ffd5b604081525f83518060408401528060208601606085015e5f606082850101526060601f19601f830116840101915050826020830152939250505056fea2646970667358221220f877286bd1fe0d9b318b9af791e36329df07ba57b4ed71b75fb0a2ef623a350664736f6c634300081c0033",
  "linkReferences": {},
  "deployedLinkReferences": {},
  "immutableReferences": {},
  "inputSourceName": "project/contracts/CourseManager.sol",
  "buildInfoId": "solc-0_8_28-b09823c4cf4d970a2b8806002abe46fc9af701f5"
}