{
  "_format": "hh3-artifact-1",
  "contractName": "CourseManager",
  "sourceName": "contracts/CourseManager.sol",
  "abi": [
    {
      "anonymous": false,
      "inputs": [
        {
          "indexed": true,
          "internalType": "uint256",
          "name": "courseId",
          "type": "uint256"
        },
        {
          "indexed": true,
          "internalType": "address",
          "name": "buyer",
          "type": "address"
        }
      ],
      "name": "BuyerAdded",
      "type": "event"
    },
    {
      "anonymous": false,
      "inputs": [
        {
          "indexed": true,
          "internalType": "uint256",
          "name": "courseId",
          "type": "uint256"
        },
        {
          "indexed": true,
          "internalType": "address",
          "name": "author",
          "type": "address"
        },
        {
          "indexed": false,
          "internalType": "string",
          "name": "title",
          "type": "string"
        },
        {
          "indexed": false,
          "internalType": "uint256",
          "name": "price",
          "type": "uint256"
        }
      ],
      "name": "CourseCreated",
      "type": "event"
    },
    {
      "inputs": [],
      "name": "TSK",
      "outputs": [
        {
          "internalType": "contract IERC20",
          "name": "",
          "type": "address"
        }
      ],
      "stateMutability": "view",
      "type": "function"
    },
    {
      "inputs": [
        {
          "internalType": "uint256",
          "name": "_courseId",
          "type": "uint256"
        },
        {
          "internalType": "address",
          "name": "_buyer",
          "type": "address"
        }
      ],
      "name": "addBuyerToCourse",
      "outputs": [],
      "stateMutability": "nonpayable",
      "type": "function"
    },
    {
      "inputs": [
        {
          "internalType": "uint256",
          "name": "_courseId",
          "type": "uint256"
        },
        {
          "internalType": "address",
          "name": "_author",
          "type": "address"
        },
        {
          "internalType": "uint256",
          "name": "_amount",
          "type": "uint256"
        }
      ],
      "name": "buyCourse",
      "outputs": [],
      "stateMutability": "nonpayable",
      "type": "function"
    },
    {
      "inputs": [
        {
          "internalType": "uint256",
          "name": "",
          "type": "uint256"
        }
      ],
      "name": "courseAuthors",
      "outputs": [
        {
          "internalType": "address",
          "name": "",
          "type": "address"
        }
      ],
      "stateMutability": "view",
      "type": "function"
    },
    {
      "inputs": [
        {
          "internalType": "uint256",
          "name": "",
          "type": "uint256"
        },
        {
          "internalType": "uint256",
          "name": "",
          "type": "uint256"
        }
      ],
      "name": "courseBuyers",
      "outputs": [
        {
          "internalType": "address",
          "name": "",
          "type": "address"
        }
      ],
      "stateMutability": "view",
      "type": "function"
    },
    {
      "inputs": [
        {
          "internalType": "uint256",
          "name": "",
          "type": "uint256"
        }
      ],
      "name": "courses",
      "outputs": [
        {
          "internalType": "string",
          "name": "title",
          "type": "string"
        },
        {
          "internalType": "uint256",
          "name": "price",
          "type": "uint256"
        },
        {
          "internalType": "address",
          "name": "author",
          "type": "address"
        },
        {
          "internalType": "bool",
          "name": "exists",
          "type": "bool"
        },
        {
          "internalType": "uint256",
          "name": "createdAt",
          "type": "uint256"
        }
      ],
      "stateMutability": "view",
      "type": "function"
    },
    {
      "inputs": [
        {
          "internalType": "uint256",
          "name": "_courseId",
          "type": "uint256"
        },
        {
          "internalType": "string",
          "name": "_title",
          "type": "string"
        },
        {
          "internalType": "uint256",
          "name": "_price",
          "type": "uint256"
        }
      ],
      "name": "createCourse",
      "outputs": [],
      "stateMutability": "nonpayable",
      "type": "function"
    },
    {
      "inputs": [
        {
          "internalType": "uint256",
          "name": "_courseId",
          "type": "uint256"
        }
      ],
      "name": "getCourseAuthor",
      "outputs": [
        {
          "internalType": "address",
          "name": "",
          "type": "address"
        }
      ],
      "stateMutability": "view",
      "type": "function"
    },
    {
      "inputs": [
        {
          "internalType": "uint256",
          "name": "_courseId",
          "type": "uint256"
        }
      ],
      "name": "getCourseBuyers",
      "outputs": [
        {
          "internalType": "address[]",
          "name": "",
          "type": "address[]"
        }
      ],
      "stateMutability": "view",
      "type": "function"
    },
    {
      "inputs": [
        {
          "internalType": "uint256",
          "name": "_courseId",
          "type": "uint256"
        }
      ],
      "name": "getCourseInfo",
      "outputs": [
        {
          "components": [
            {
              "internalType": "string",
              "name": "title",
              "type": "string"
            },
            {
              "internalType": "uint256",
              "name": "price",
              "type": "uint256"
            },
            {
              "internalType": "address",
              "name": "author",
              "type": "address"
            },
            {
              "internalType": "bool",
              "name": "exists",
              "type": "bool"
            },
            {
              "internalType": "uint256",
              "name": "createdAt",
              "type": "uint256"
            }
          ],
          "internalType": "struct CourseManager.CourseInfo",
          "name": "",
          "type": "tuple"
        }
      ],
      "stateMutability": "view",
      "type": "function"
    },
    {
      "inputs": [
        {
          "internalType": "uint256",
          "name": "_courseId",
          "type": "uint256"
        },
        {
          "internalType": "address",
          "name": "_buyer",
          "type": "address"
        }
      ],
      "name": "isBuyerInCourse",
      "outputs": [
        {
          "internalType": "bool",
          "name": "",
          "type": "bool"
        }
      ],
      "stateMutability": "view",
      "type": "function"
    }
  ],
  "bytecode": "0x6080604052348015600e575f5ffd5b506112678061001c5f395ff3fe608060405234801561000f575f5ffd5b50600436106100a6575f3560e01c8063981059ee1161006e578063981059ee14610156578063bb895cdf14610176578063d7237f0214610199578063e1a98d2f146101ac578063faa4024f146101bf578063fbc01735146101df575f5ffd5b80632a016cd8146100aa57806354588dc3146100da578063734c0415146100f557806396f858e21461010a57806396f979d214610132575b5f5ffd5b6100bd6100b8366004610dc7565b610207565b6040516001600160a01b0390911681526020015b60405180910390f35b6100bd735f47394fb6c50b80eea9a388142b5165b143156581565b610108610103366004610e02565b61023a565b005b6100bd610118366004610e2c565b60016020525f90815260409020546001600160a01b031681565b610145610140366004610e2c565b61034d565b6040516100d1959493929190610e71565b610169610164366004610e2c565b610411565b6040516100d19190610eb0565b610189610184366004610e02565b610531565b60405190151581526020016100d1565b6101086101a7366004610f1d565b61059d565b6101086101ba366004610fe3565b6107e0565b6101d26101cd366004610e2c565b610c43565b6040516100d19190611016565b6100bd6101ed366004610e2c565b5f908152600160205260409020546001600160a01b031690565b5f602052815f5260405f20818154811061021f575f80fd5b5f918252602090912001546001600160a01b03169150829050565b5f828152602081905260408120905b81548110156102cd57826001600160a01b031682828154811061026e5761026e611061565b5f918252602090912001546001600160a01b0316036102c55760405162461bcd60e51b815260206004820152600e60248201526d105b1c9958591e48189bdd59da1d60921b60448201526064015b60405180910390fd5b600101610249565b5080545f84815260208181526040808320805460018101825590845291832090910180546001600160a01b0319166001600160a01b0387169081179091559051921592909186917fd28f937e71e8a89ddbefb8937335b2ae03fb74ce63dd6a6f316724c5a7e6c3dc9190a380156103475761034783610caa565b50505050565b60026020525f908152604090208054819061036790611075565b80601f016020809104026020016040519081016040528092919081815260200182805461039390611075565b80156103de5780601f106103b5576101008083540402835291602001916103de565b820191905f5260205f20905b8154815290600101906020018083116103c157829003601f168201915b5050505060018301546002840154600390940154929390926001600160a01b0382169250600160a01b90910460ff169085565b61044a6040518060a00160405280606081526020015f81526020015f6001600160a01b031681526020015f151581526020015f81525090565b5f8281526002602052604090819020815160a0810190925280548290829061047190611075565b80601f016020809104026020016040519081016040528092919081815260200182805461049d90611075565b80156104e85780601f106104bf576101008083540402835291602001916104e8565b820191905f5260205f20905b8154815290600101906020018083116104cb57829003601f168201915b50505091835250506001820154602082015260028201546001600160a01b0381166040830152600160a01b900460ff161515606082015260039091015460809091015292915050565b5f828152602081905260408120815b815481101561059157836001600160a01b031682828154811061056557610565611061565b5f918252602090912001546001600160a01b03160361058957600192505050610597565b600101610540565b505f9150505b92915050565b5f83116105e05760405162461bcd60e51b8152602060048201526011602482015270125b9d985b1a590818dbdd5c9cd9481251607a1b60448201526064016102bc565b5f8251116106285760405162461bcd60e51b81526020600482015260156024820152745469746c652063616e6e6f7420626520656d70747960581b60448201526064016102bc565b5f8381526002602081905260409091200154600160a01b900460ff16156106895760405162461bcd60e51b8152602060048201526015602482015274436f7572736520616c72656164792065786973747360581b60448201526064016102bc565b6040805160a08101825283815260208082018490523382840152600160608301524260808301525f868152600290915291909120815181906106cb90826110f9565b5060208281015160018084019190915560408085015160028501805460608801511515600160a01b026001600160a81b03199091166001600160a01b03909316929092179190911790556080909401516003909301929092555f86815282825283812080546001600160a01b0319908116339081179092558284529482208054948501815582529190209091018054909216811790915561076b90610caa565b336001600160a01b0316837f27b444394f1a7b0aa73d468ff76433d70ccbd1517709b5a2b06eaf249a4ddcf084846040516107a79291906111b4565b60405180910390a3604051339084907fd28f937e71e8a89ddbefb8937335b2ae03fb74ce63dd6a6f316724c5a7e6c3dc905f90a3505050565b6001600160a01b03821661082f5760405162461bcd60e51b8152602060048201526016602482015275496e76616c696420617574686f72206164647265737360501b60448201526064016102bc565b60015f61083c82846111d5565b604051636eb1769f60e11b81523360048201523060248201529091508390735f47394fb6c50b80eea9a388142b5165b14315659063dd62ed3e90604401602060405180830381865afa158015610894573d5f5f3e3d5ffd5b505050506040513d601f19601f820116820180604052508101906108b891906111f4565b10156108fd5760405162461bcd60e51b81526020600482015260146024820152734e6f7420656e6f75676820616c6c6f77616e636560601b60448201526064016102bc565b6040516370a0823160e01b81523360048201528390735f47394fb6c50b80eea9a388142b5165b1431565906370a0823190602401602060405180830381865afa15801561094c573d5f5f3e3d5ffd5b505050506040513d601f19601f8201168201806040525081019061097091906111f4565b10156109b75760405162461bcd60e51b81526020600482015260166024820152754e6f7420656e6f7567682054534b2062616c616e636560501b60448201526064016102bc565b6040516323b872dd60e01b815233600482015230602482015260448101849052735f47394fb6c50b80eea9a388142b5165b1431565906323b872dd906064016020604051808303815f875af1158015610a12573d5f5f3e3d5ffd5b505050506040513d601f19601f82011682018060405250810190610a36919061120b565b610a825760405162461bcd60e51b815260206004820152601760248201527f54534b207472616e7366657246726f6d206661696c656400000000000000000060448201526064016102bc565b60405163a9059cbb60e01b81526001600160a01b038516600482015260248101829052735f47394fb6c50b80eea9a388142b5165b14315659063a9059cbb906044016020604051808303815f875af1158015610ae0573d5f5f3e3d5ffd5b505050506040513d601f19601f82011682018060405250810190610b04919061120b565b610b505760405162461bcd60e51b815260206004820152601d60248201527f54534b207472616e7366657220746f20617574686f72206661696c656400000060448201526064016102bc565b5f858152602081905260408120905b8154811015610bde57336001600160a01b0316828281548110610b8457610b84611061565b5f918252602090912001546001600160a01b031603610bd65760405162461bcd60e51b815260206004820152600e60248201526d105b1c9958591e48189bdd59da1d60921b60448201526064016102bc565b600101610b5f565b505f86815260208181526040808320805460018101825590845291832090910180546001600160a01b031916339081179091559051909188917fd28f937e71e8a89ddbefb8937335b2ae03fb74ce63dd6a6f316724c5a7e6c3dc9190a3505050505050565b5f8181526020818152604091829020805483518184028101840190945280845260609392830182828015610c9e57602002820191905f5260205f20905b81546001600160a01b03168152600190910190602001808311610c80575b50505050509050919050565b6001600160a01b038116610cf95760405162461bcd60e51b8152602060048201526016602482015275496e76616c696420617574686f72206164647265737360501b60448201526064016102bc565b60405163a9059cbb60e01b81526001600160a01b0382166004820152678ac7230489e800006024820152735f47394fb6c50b80eea9a388142b5165b14315659063a9059cbb906044016020604051808303815f875af1158015610d5e573d5f5f3e3d5ffd5b505050506040513d601f19601f82011682018060405250810190610d82919061120b565b610dc45760405162461bcd60e51b81526020600482015260136024820152721514d2c81d1c985b9cd9995c8819985a5b1959606a1b60448201526064016102bc565b50565b5f5f60408385031215610dd8575f5ffd5b50508035926020909101359150565b80356001600160a01b0381168114610dfd575f5ffd5b919050565b5f5f60408385031215610e13575f5ffd5b82359150610e2360208401610de7565b90509250929050565b5f60208284031215610e3c575f5ffd5b5035919050565b5f81518084528060208401602086015e5f602082860101526020601f19601f83011685010191505092915050565b60a081525f610e8360a0830188610e43565b6020830196909652506001600160a01b039390931660408401529015156060830152608090910152919050565b602081525f825160a06020840152610ecb60c0840182610e43565b90506020840151604084015260018060a01b036040850151166060840152606084015115156080840152608084015160a08401528091505092915050565b634e487b7160e01b5f52604160045260245ffd5b5f5f5f60608486031215610f2f575f5ffd5b83359250602084013567ffffffffffffffff811115610f4c575f5ffd5b8401601f81018613610f5c575f5ffd5b803567ffffffffffffffff811115610f7657610f76610f09565b604051601f8201601f19908116603f0116810167ffffffffffffffff81118282101715610fa557610fa5610f09565b604052818152828201602001881015610fbc575f5ffd5b816020840160208301375f9181016020019190915293969395505050506040919091013590565b5f5f5f60608486031215610ff5575f5ffd5b8335925061100560208501610de7565b929592945050506040919091013590565b602080825282518282018190525f918401906040840190835b818110156110565783516001600160a01b031683526020938401939092019160010161102f565b509095945050505050565b634e487b7160e01b5f52603260045260245ffd5b600181811c9082168061108957607f821691505b6020821081036110a757634e487b7160e01b5f52602260045260245ffd5b50919050565b601f8211156110f457805f5260205f20601f840160051c810160208510156110d25750805b601f840160051c820191505b818110156110f1575f81556001016110de565b50505b505050565b815167ffffffffffffffff81111561111357611113610f09565b611127816111218454611075565b846110ad565b6020601f821160018114611159575f83156111425750848201515b5f19600385901b1c1916600184901b1784556110f1565b5f84815260208120601f198516915b828110156111885787850151825560209485019460019092019101611168565b50848210156111a557868401515f19600387901b60f8161c191681555b50505050600190811b01905550565b604081525f6111c66040830185610e43565b90508260208301529392505050565b8181038181111561059757634e487b7160e01b5f52601160045260245ffd5b5f60208284031215611204575f5ffd5b5051919050565b5f6020828403121561121b575f5ffd5b8151801515811461122a575f5ffd5b939250505056fea2646970667358221220d990a71acac9c48d3f94f4ef71db3ef57dbc8539d465c58e492ea5ea2f5affc064736f6c634300081c0033",
  "linkReferences": {},
  "deployedLinkReferences": {},
  "immutableReferences": {},
  "inputSourceName": "project/contracts/CourseManager.sol",
  "buildInfoId": "solc-0_8_28-2eb7ce9f538f4d1e075f7b2b76ed8ace68918592"
}