{
  "_format": "hh3-artifact-1",
  "contractName": "TokenExchange",
  "sourceName": "contracts/TokenExchange.sol",
  "abi": [
    {
      "anonymous": false,
      "inputs": [
        {
          "indexed": true,
          "internalType": "address",
          "name": "buyer",
          "type": "address"
        },
        {
          "indexed": false,
          "internalType": "uint256",
          "name": "ethAmount",
          "type": "uint256"
        },
        {
          "indexed": false,
          "internalType": "uint256",
          "name": "tokenAmount",
          "type": "uint256"
        }
      ],
      "name": "TokensBought",
      "type": "event"
    },
    {
      "anonymous": false,
      "inputs": [
        {
          "indexed": true,
          "internalType": "address",
          "name": "seller",
          "type": "address"
        },
        {
          "indexed": false,
          "internalType": "uint256",
          "name": "tokenAmount",
          "type": "uint256"
        },
        {
          "indexed": false,
          "internalType": "uint256",
          "name": "ethAmount",
          "type": "uint256"
        }
      ],
      "name": "TokensSold",
      "type": "event"
    },
    {
      "inputs": [],
      "name": "EXCHANGE_RATE",
      "outputs": [
        {
          "internalType": "uint256",
          "name": "",
          "type": "uint256"
        }
      ],
      "stateMutability": "view",
      "type": "function"
    },
    {
      "inputs": [],
      "name": "buyToken",
      "outputs": [],
      "stateMutability": "payable",
      "type": "function"
    },
    {
      "inputs": [
        {
          "internalType": "uint256",
          "name": "amount",
          "type": "uint256"
        }
      ],
      "name": "sellToken",
      "outputs": [],
      "stateMutability": "nonpayable",
      "type": "function"
    },
    {
      "inputs": [],
      "name": "token",
      "outputs": [
        {
          "internalType": "contract IERC20",
          "name": "",
          "type": "address"
        }
      ],
      "stateMutability": "view",
      "type": "function"
    },
    {
      "stateMutability": "payable",
      "type": "receive"
    }
  ],
  "bytecode": "0x6080604052348015600e575f5ffd5b506105828061001c5f395ff3fe608060405260043610610041575f3560e01c806314a8bd0d1461004c5780632397e4d714610074578063a482171914610095578063fc0c546a1461009d575f5ffd5b3661004857005b5f5ffd5b348015610057575f5ffd5b506100616103e881565b6040519081526020015b60405180910390f35b34801561007f575f5ffd5b5061009361008e3660046104b0565b6100dc565b005b6100936102af565b3480156100a8575f5ffd5b506100c4735f47394fb6c50b80eea9a388142b5165b143156581565b6040516001600160a01b03909116815260200161006b565b5f81116101305760405162461bcd60e51b815260206004820152601d60248201527f416d6f756e74206d7573742062652067726561746572207468616e203000000060448201526064015b60405180910390fd5b5f61013d6103e8836104c7565b9050804710156101825760405162461bcd60e51b815260206004820152601060248201526f092dce6eaccccd2c6d2cadce8408aa8960831b6044820152606401610127565b6040516323b872dd60e01b815233600482015230602482015260448101839052735f47394fb6c50b80eea9a388142b5165b1431565906323b872dd906064016020604051808303815f875af11580156101dd573d5f5f3e3d5ffd5b505050506040513d601f19601f8201168201806040525081019061020191906104e6565b6102455760405162461bcd60e51b8152602060048201526015602482015274151bdad95b881d1c985b9cd9995c8819985a5b1959605a1b6044820152606401610127565b604051339082156108fc029083905f818181858888f1935050505015801561026f573d5f5f3e3d5ffd5b50604080518381526020810183905233917f2dcf9433d75db0d8b1c172641f85e319ffe4ad22e108a95d1847ceb906e5195d910160405180910390a25050565b5f34116102ee5760405162461bcd60e51b815260206004820152600d60248201526c09aeae6e840e6cadcc8408aa89609b1b6044820152606401610127565b5f6102fb6103e83461050c565b6040516370a0823160e01b81523060048201529091508190735f47394fb6c50b80eea9a388142b5165b1431565906370a0823190602401602060405180830381865afa15801561034d573d5f5f3e3d5ffd5b505050506040513d601f19601f820116820180604052508101906103719190610535565b10156103b55760405162461bcd60e51b8152602060048201526013602482015272496e73756666696369656e7420746f6b656e7360681b6044820152606401610127565b60405163a9059cbb60e01b815233600482015260248101829052735f47394fb6c50b80eea9a388142b5165b14315659063a9059cbb906044016020604051808303815f875af115801561040a573d5f5f3e3d5ffd5b505050506040513d601f19601f8201168201806040525081019061042e91906104e6565b6104725760405162461bcd60e51b8152602060048201526015602482015274151bdad95b881d1c985b9cd9995c8819985a5b1959605a1b6044820152606401610127565b604080513481526020810183905233917f8442948036198f1146d3a63c3db355d7e0295c2cc5676c755990445da4fdc1c9910160405180910390a250565b5f602082840312156104c0575f5ffd5b5035919050565b5f826104e157634e487b7160e01b5f52601260045260245ffd5b500490565b5f602082840312156104f6575f5ffd5b81518015158114610505575f5ffd5b9392505050565b808202811582820484141761052f57634e487b7160e01b5f52601160045260245ffd5b92915050565b5f60208284031215610545575f5ffd5b505191905056fea26469706673582212203b44e7c47aeba104a1b5a2405092b3ee4c168e9f704bf1e629bf8d476c54ac8164736f6c634300081c0033",
  "linkReferences": {},
  "deployedLinkReferences": {},
  "immutableReferences": {},
  "inputSourceName": "project/contracts/TokenExchange.sol",
  "buildInfoId": "solc-0_8_28-9001942744966233d92b94bd1590bba14cd64a39"
}