{
  "_format": "hh3-artifact-1",
  "contractName": "TSKToken",
  "sourceName": "contracts/TSKToken.sol",
  "abi": [
    {
      "inputs": [],
      "stateMutability": "nonpayable",
      "type": "constructor"
    },
    {
      "inputs": [
        {
          "internalType": "address",
          "name": "spender",
          "type": "address"
        },
        {
          "internalType": "uint256",
          "name": "allowance",
          "type": "uint256"
        },
        {
          "internalType": "uint256",
          "name": "needed",
          "type": "uint256"
        }
      ],
      "name": "ERC20InsufficientAllowance",
      "type": "error"
    },
    {
      "inputs": [
        {
          "internalType": "address",
          "name": "sender",
          "type": "address"
        },
        {
          "internalType": "uint256",
          "name": "balance",
          "type": "uint256"
        },
        {
          "internalType": "uint256",
          "name": "needed",
          "type": "uint256"
        }
      ],
      "name": "ERC20InsufficientBalance",
      "type": "error"
    },
    {
      "inputs": [
        {
          "internalType": "address",
          "name": "approver",
          "type": "address"
        }
      ],
      "name": "ERC20InvalidApprover",
      "type": "error"
    },
    {
      "inputs": [
        {
          "internalType": "address",
          "name": "receiver",
          "type": "address"
        }
      ],
      "name": "ERC20InvalidReceiver",
      "type": "error"
    },
    {
      "inputs": [
        {
          "internalType": "address",
          "name": "sender",
          "type": "address"
        }
      ],
      "name": "ERC20InvalidSender",
      "type": "error"
    },
    {
      "inputs": [
        {
          "internalType": "address",
          "name": "spender",
          "type": "address"
        }
      ],
      "name": "ERC20InvalidSpender",
      "type": "error"
    },
    {
      "inputs": [
        {
          "internalType": "address",
          "name": "owner",
          "type": "address"
        }
      ],
      "name": "OwnableInvalidOwner",
      "type": "error"
    },
    {
      "inputs": [
        {
          "internalType": "address",
          "name": "account",
          "type": "address"
        }
      ],
      "name": "OwnableUnauthorizedAccount",
      "type": "error"
    },
    {
      "anonymous": false,
      "inputs": [
        {
          "indexed": true,
          "internalType": "address",
          "name": "owner",
          "type": "address"
        },
        {
          "indexed": true,
          "internalType": "address",
          "name": "spender",
          "type": "address"
        },
        {
          "indexed": false,
          "internalType": "uint256",
          "name": "value",
          "type": "uint256"
        }
      ],
      "name": "Approval",
      "type": "event"
    },
    {
      "anonymous": false,
      "inputs": [
        {
          "indexed": true,
          "internalType": "address",
          "name": "user",
          "type": "address"
        },
        {
          "indexed": false,
          "internalType": "uint256",
          "name": "ethAmount",
          "type": "uint256"
        },
        {
          "indexed": false,
          "internalType": "uint256",
          "name": "tskAmount",
          "type": "uint256"
        }
      ],
      "name": "ETHSwapped",
      "type": "event"
    },
    {
      "anonymous": false,
      "inputs": [
        {
          "indexed": true,
          "internalType": "address",
          "name": "previousOwner",
          "type": "address"
        },
        {
          "indexed": true,
          "internalType": "address",
          "name": "newOwner",
          "type": "address"
        }
      ],
      "name": "OwnershipTransferred",
      "type": "event"
    },
    {
      "anonymous": false,
      "inputs": [
        {
          "indexed": true,
          "internalType": "address",
          "name": "from",
          "type": "address"
        },
        {
          "indexed": false,
          "internalType": "uint256",
          "name": "amount",
          "type": "uint256"
        }
      ],
      "name": "TokensBurned",
      "type": "event"
    },
    {
      "anonymous": false,
      "inputs": [
        {
          "indexed": true,
          "internalType": "address",
          "name": "to",
          "type": "address"
        },
        {
          "indexed": false,
          "internalType": "uint256",
          "name": "amount",
          "type": "uint256"
        }
      ],
      "name": "TokensMinted",
      "type": "event"
    },
    {
      "anonymous": false,
      "inputs": [
        {
          "indexed": true,
          "internalType": "address",
          "name": "from",
          "type": "address"
        },
        {
          "indexed": true,
          "internalType": "address",
          "name": "to",
          "type": "address"
        },
        {
          "indexed": false,
          "internalType": "uint256",
          "name": "value",
          "type": "uint256"
        }
      ],
      "name": "Transfer",
      "type": "event"
    },
    {
      "inputs": [
        {
          "internalType": "address",
          "name": "owner",
          "type": "address"
        },
        {
          "internalType": "address",
          "name": "spender",
          "type": "address"
        }
      ],
      "name": "allowance",
      "outputs": [
        {
          "internalType": "uint256",
          "name": "",
          "type": "uint256"
        }
      ],
      "stateMutability": "view",
      "type": "function"
    },
    {
      "inputs": [
        {
          "internalType": "address",
          "name": "spender",
          "type": "address"
        },
        {
          "internalType": "uint256",
          "name": "value",
          "type": "uint256"
        }
      ],
      "name": "approve",
      "outputs": [
        {
          "internalType": "bool",
          "name": "",
          "type": "bool"
        }
      ],
      "stateMutability": "nonpayable",
      "type": "function"
    },
    {
      "inputs": [
        {
          "internalType": "address",
          "name": "account",
          "type": "address"
        }
      ],
      "name": "balanceOf",
      "outputs": [
        {
          "internalType": "uint256",
          "name": "",
          "type": "uint256"
        }
      ],
      "stateMutability": "view",
      "type": "function"
    },
    {
      "inputs": [
        {
          "internalType": "uint256",
          "name": "amount",
          "type": "uint256"
        }
      ],
      "name": "burn",
      "outputs": [],
      "stateMutability": "nonpayable",
      "type": "function"
    },
    {
      "inputs": [],
      "name": "decimals",
      "outputs": [
        {
          "internalType": "uint8",
          "name": "",
          "type": "uint8"
        }
      ],
      "stateMutability": "view",
      "type": "function"
    },
    {
      "inputs": [
        {
          "internalType": "address",
          "name": "to",
          "type": "address"
        },
        {
          "internalType": "uint256",
          "name": "amount",
          "type": "uint256"
        }
      ],
      "name": "mint",
      "outputs": [],
      "stateMutability": "nonpayable",
      "type": "function"
    },
    {
      "inputs": [],
      "name": "name",
      "outputs": [
        {
          "internalType": "string",
          "name": "",
          "type": "string"
        }
      ],
      "stateMutability": "view",
      "type": "function"
    },
    {
      "inputs": [],
      "name": "owner",
      "outputs": [
        {
          "internalType": "address",
          "name": "",
          "type": "address"
        }
      ],
      "stateMutability": "view",
      "type": "function"
    },
    {
      "inputs": [],
      "name": "renounceOwnership",
      "outputs": [],
      "stateMutability": "nonpayable",
      "type": "function"
    },
    {
      "inputs": [
        {
          "internalType": "uint256",
          "name": "amount",
          "type": "uint256"
        }
      ],
      "name": "swapETHForTSK",
      "outputs": [],
      "stateMutability": "payable",
      "type": "function"
    },
    {
      "inputs": [],
      "name": "symbol",
      "outputs": [
        {
          "internalType": "string",
          "name": "",
          "type": "string"
        }
      ],
      "stateMutability": "view",
      "type": "function"
    },
    {
      "inputs": [],
      "name": "totalSupply",
      "outputs": [
        {
          "internalType": "uint256",
          "name": "",
          "type": "uint256"
        }
      ],
      "stateMutability": "view",
      "type": "function"
    },
    {
      "inputs": [
        {
          "internalType": "address",
          "name": "to",
          "type": "address"
        },
        {
          "internalType": "uint256",
          "name": "value",
          "type": "uint256"
        }
      ],
      "name": "transfer",
      "outputs": [
        {
          "internalType": "bool",
          "name": "",
          "type": "bool"
        }
      ],
      "stateMutability": "nonpayable",
      "type": "function"
    },
    {
      "inputs": [
        {
          "internalType": "address",
          "name": "from",
          "type": "address"
        },
        {
          "internalType": "address",
          "name": "to",
          "type": "address"
        },
        {
          "internalType": "uint256",
          "name": "value",
          "type": "uint256"
        }
      ],
      "name": "transferFrom",
      "outputs": [
        {
          "internalType": "bool",
          "name": "",
          "type": "bool"
        }
      ],
      "stateMutability": "nonpayable",
      "type": "function"
    },
    {
      "inputs": [
        {
          "internalType": "address",
          "name": "newOwner",
          "type": "address"
        }
      ],
      "name": "transferOwnership",
      "outputs": [],
      "stateMutability": "nonpayable",
      "type": "function"
    },
    {
      "inputs": [],
      "name": "withdrawETH",
      "outputs": [],
      "stateMutability": "nonpayable",
      "type": "function"
    },
    {
      "stateMutability": "payable",
      "type": "receive"
    }
  ],
  "bytecode": "0x608060405234801561000f575f5ffd5b5033604051806040016040528060098152602001682a29a5902a37b5b2b760b91b8152506040518060400160405280600381526020016254534b60e81b815250816003908161005e9190610313565b50600461006b8282610313565b5050506001600160a01b03811661009c57604051631e4fbdf760e01b81525f60048201526024015b60405180910390fd5b6100a5816100cc565b506100c7336100b66012600a6104c6565b6100c2906103e86104db565b61011d565b610505565b600580546001600160a01b038381166001600160a01b0319831681179093556040519116919082907f8be0079c531659141344cd1fd0a4f28419497f9722a3daafe3b4186f6b6457e0905f90a35050565b6001600160a01b0382166101465760405163ec442f0560e01b81525f6004820152602401610093565b6101515f8383610155565b5050565b6001600160a01b03831661017f578060025f82825461017491906104f2565b909155506101ef9050565b6001600160a01b0383165f90815260208190526040902054818110156101d15760405163391434e360e21b81526001600160a01b03851660048201526024810182905260448101839052606401610093565b6001600160a01b0384165f9081526020819052604090209082900390555b6001600160a01b03821661020b57600280548290039055610229565b6001600160a01b0382165f9081526020819052604090208054820190555b816001600160a01b0316836001600160a01b03167fddf252ad1be2c89b69c2b068fc378daa952ba7f163c4a11628f55a4df523b3ef8360405161026e91815260200190565b60405180910390a3505050565b634e487b7160e01b5f52604160045260245ffd5b600181811c908216806102a357607f821691505b6020821081036102c157634e487b7160e01b5f52602260045260245ffd5b50919050565b601f82111561030e57805f5260205f20601f840160051c810160208510156102ec5750805b601f840160051c820191505b8181101561030b575f81556001016102f8565b50505b505050565b81516001600160401b0381111561032c5761032c61027b565b6103408161033a845461028f565b846102c7565b6020601f821160018114610372575f831561035b5750848201515b5f19600385901b1c1916600184901b17845561030b565b5f84815260208120601f198516915b828110156103a15787850151825560209485019460019092019101610381565b50848210156103be57868401515f19600387901b60f8161c191681555b50505050600190811b01905550565b634e487b7160e01b5f52601160045260245ffd5b6001815b600184111561041c57808504811115610400576104006103cd565b600184161561040e57908102905b60019390931c9280026103e5565b935093915050565b5f82610432575060016104c0565b8161043e57505f6104c0565b8160018114610454576002811461045e5761047a565b60019150506104c0565b60ff84111561046f5761046f6103cd565b50506001821b6104c0565b5060208310610133831016604e8410600b841016171561049d575081810a6104c0565b6104a95f1984846103e1565b805f19048211156104bc576104bc6103cd565b0290505b92915050565b5f6104d460ff841683610424565b9392505050565b80820281158282048414176104c0576104c06103cd565b808201808211156104c0576104c06103cd565b610fad806105125f395ff3fe6080604052600436106100f2575f3560e01c8063715018a611610087578063a9059cbb11610057578063a9059cbb14610284578063dd62ed3e146102a3578063e086e5ec146102e7578063f2fde38b146102fb575f5ffd5b8063715018a6146102225780638da5cb5b146102365780638f791ea21461025d57806395d89b4114610270575f5ffd5b8063313ce567116100c2578063313ce5671461019357806340c10f19146101ae57806342966c68146101cf57806370a08231146101ee575f5ffd5b806306fdde03146100fd578063095ea7b31461012757806318160ddd1461015657806323b872dd14610174575f5ffd5b366100f957005b5f5ffd5b348015610108575f5ffd5b5061011161031a565b60405161011e9190610c8b565b60405180910390f35b348015610132575f5ffd5b50610146610141366004610cd4565b6103aa565b604051901515815260200161011e565b348015610161575f5ffd5b506002545b60405190815260200161011e565b34801561017f575f5ffd5b5061014661018e366004610cfe565b6103c3565b34801561019e575f5ffd5b506040516012815260200161011e565b3480156101b9575f5ffd5b506101cd6101c8366004610cd4565b6103e6565b005b3480156101da575f5ffd5b506101cd6101e9366004610d3c565b6104e9565b3480156101f9575f5ffd5b50610166610208366004610d53565b6001600160a01b03165f9081526020819052604090205490565b34801561022d575f5ffd5b506101cd6105cd565b348015610241575f5ffd5b506005546040516001600160a01b03909116815260200161011e565b6101cd61026b366004610d3c565b6105e0565b34801561027b575f5ffd5b50610111610834565b34801561028f575f5ffd5b5061014661029e366004610cd4565b610843565b3480156102ae575f5ffd5b506101666102bd366004610d75565b6001600160a01b039182165f90815260016020908152604080832093909416825291909152205490565b3480156102f2575f5ffd5b506101cd610850565b348015610306575f5ffd5b506101cd610315366004610d53565b610884565b60606003805461032990610dac565b80601f016020809104026020016040519081016040528092919081815260200182805461035590610dac565b80156103a05780601f10610377576101008083540402835291602001916103a0565b820191905f5260205f20905b81548152906001019060200180831161038357829003601f168201915b5050505050905090565b5f336103b78185856108be565b60019150505b92915050565b5f336103d08582856108d0565b6103db85858561094c565b506001949350505050565b6103ee6109a9565b6001600160a01b0382166104495760405162461bcd60e51b815260206004820152601b60248201527f63616e6e6f74206d696e7420746f207a65726f2061646472657373000000000060448201526064015b60405180910390fd5b5f81116104985760405162461bcd60e51b815260206004820152601d60248201527f616d6f756e74206d7573742062652067726561746572207468616e20300000006044820152606401610440565b6104a282826109d6565b816001600160a01b03167f3f2c9d57c068687834f0de942a9babb9e5acab57d516d3480a3c16ee165a4273826040516104dd91815260200190565b60405180910390a25050565b5f81116105385760405162461bcd60e51b815260206004820152601d60248201527f616d6f756e74206d7573742062652067726561746572207468616e20300000006044820152606401610440565b335f9081526020819052604090205481111561058b5760405162461bcd60e51b81526020600482015260126024820152710c4c2d8c2dcc6ca40dcdee840cadcdeeaced60731b6044820152606401610440565b6105953382610a0e565b60405181815233907ffd38818f5291bf0bb3a2a48aadc06ba8757865d1dabd804585338aab3009dcb69060200160405180910390a250565b6105d56109a9565b6105de5f610a42565b565b80341461062f5760405162461bcd60e51b815260206004820152601f60248201527f45544820616d6f756e74206d757374206d6174636820706172616d65746572006044820152606401610440565b5f811161067e5760405162461bcd60e51b815260206004820152601d60248201527f416d6f756e74206d7573742062652067726561746572207468616e20300000006044820152606401610440565b6040805160028082526060820183525f92602083019080368337019050509050737a250d5630b4cf539739df2c5dacb4c659f2488d6001600160a01b031663ad5c46486040518163ffffffff1660e01b8152600401602060405180830381865afa1580156106ee573d5f5f3e3d5ffd5b505050506040513d601f19601f820116820180604052508101906107129190610df8565b815f8151811061072457610724610e13565b60200260200101906001600160a01b031690816001600160a01b031681525050308160018151811061075857610758610e13565b6001600160a01b0390921660209283029190910190910152737a250d5630b4cf539739df2c5dacb4c659f2488d637ff36ab5835f843361079a42610e10610e27565b6040518663ffffffff1660e01b81526004016107b99493929190610e46565b5f6040518083038185885af11580156107d4573d5f5f3e3d5ffd5b50505050506040513d5f823e601f3d908101601f191682016040526107fc9190810190610eaf565b50604080518381525f602082015233917fdb79dc73128708130e619205d26b61e38269fd782a5309ccb2c711741bc0201e91016104dd565b60606004805461032990610dac565b5f336103b781858561094c565b6108586109a9565b60405133904780156108fc02915f818181858888f19350505050158015610881573d5f5f3e3d5ffd5b50565b61088c6109a9565b6001600160a01b0381166108b557604051631e4fbdf760e01b81525f6004820152602401610440565b61088181610a42565b6108cb8383836001610a93565b505050565b6001600160a01b038381165f908152600160209081526040808320938616835292905220545f19811015610946578181101561093857604051637dc7a0d960e11b81526001600160a01b03841660048201526024810182905260448101839052606401610440565b61094684848484035f610a93565b50505050565b6001600160a01b03831661097557604051634b637e8f60e11b81525f6004820152602401610440565b6001600160a01b03821661099e5760405163ec442f0560e01b81525f6004820152602401610440565b6108cb838383610b65565b6005546001600160a01b031633146105de5760405163118cdaa760e01b8152336004820152602401610440565b6001600160a01b0382166109ff5760405163ec442f0560e01b81525f6004820152602401610440565b610a0a5f8383610b65565b5050565b6001600160a01b038216610a3757604051634b637e8f60e11b81525f6004820152602401610440565b610a0a825f83610b65565b600580546001600160a01b038381166001600160a01b0319831681179093556040519116919082907f8be0079c531659141344cd1fd0a4f28419497f9722a3daafe3b4186f6b6457e0905f90a35050565b6001600160a01b038416610abc5760405163e602df0560e01b81525f6004820152602401610440565b6001600160a01b038316610ae557604051634a1406b160e11b81525f6004820152602401610440565b6001600160a01b038085165f908152600160209081526040808320938716835292905220829055801561094657826001600160a01b0316846001600160a01b03167f8c5be1e5ebec7d5bd14f71427d1e84f3dd0314c0f7b2291e5b200ac8c7c3b92584604051610b5791815260200190565b60405180910390a350505050565b6001600160a01b038316610b8f578060025f828254610b849190610e27565b90915550610bff9050565b6001600160a01b0383165f9081526020819052604090205481811015610be15760405163391434e360e21b81526001600160a01b03851660048201526024810182905260448101839052606401610440565b6001600160a01b0384165f9081526020819052604090209082900390555b6001600160a01b038216610c1b57600280548290039055610c39565b6001600160a01b0382165f9081526020819052604090208054820190555b816001600160a01b0316836001600160a01b03167fddf252ad1be2c89b69c2b068fc378daa952ba7f163c4a11628f55a4df523b3ef83604051610c7e91815260200190565b60405180910390a3505050565b602081525f82518060208401528060208501604085015e5f604082850101526040601f19601f83011684010191505092915050565b6001600160a01b0381168114610881575f5ffd5b5f5f60408385031215610ce5575f5ffd5b8235610cf081610cc0565b946020939093013593505050565b5f5f5f60608486031215610d10575f5ffd5b8335610d1b81610cc0565b92506020840135610d2b81610cc0565b929592945050506040919091013590565b5f60208284031215610d4c575f5ffd5b5035919050565b5f60208284031215610d63575f5ffd5b8135610d6e81610cc0565b9392505050565b5f5f60408385031215610d86575f5ffd5b8235610d9181610cc0565b91506020830135610da181610cc0565b809150509250929050565b600181811c90821680610dc057607f821691505b602082108103610dde57634e487b7160e01b5f52602260045260245ffd5b50919050565b634e487b7160e01b5f52604160045260245ffd5b5f60208284031215610e08575f5ffd5b8151610d6e81610cc0565b634e487b7160e01b5f52603260045260245ffd5b808201808211156103bd57634e487b7160e01b5f52601160045260245ffd5b5f608082018683526080602084015280865180835260a0850191506020880192505f5b81811015610e905783516001600160a01b0316835260209384019390920191600101610e69565b50506001600160a01b0395909516604084015250506060015292915050565b5f60208284031215610ebf575f5ffd5b815167ffffffffffffffff811115610ed5575f5ffd5b8201601f81018413610ee5575f5ffd5b805167ffffffffffffffff811115610eff57610eff610de4565b8060051b604051601f19603f830116810181811067ffffffffffffffff82111715610f2c57610f2c610de4565b604052918252602081840181019290810187841115610f49575f5ffd5b6020850194505b83851015610f6c57845180825260209586019590935001610f50565b50969550505050505056fea2646970667358221220aa14587fa435ffc6a7f4d76f5a1e7a9dc7c29cbd09611e1dfc751454392d76e464736f6c634300081c0033",
  "linkReferences": {},
  "deployedLinkReferences": {},
  "immutableReferences": {},
  "inputSourceName": "project/contracts/TSKToken.sol",
  "buildInfoId": "solc-0_8_28-c15df1931b25818007c90c489a6385e76c9cb72d"
}