{
  "_format": "hh3-artifact-1",
  "contractName": "TSKToken",
  "sourceName": "contracts/TSKToken.sol",
  "abi": [
    {
      "inputs": [],
      "stateMutability": "nonpayable",
      "type": "constructor"
    },
    {
      "inputs": [
        {
          "internalType": "address",
          "name": "spender",
          "type": "address"
        },
        {
          "internalType": "uint256",
          "name": "allowance",
          "type": "uint256"
        },
        {
          "internalType": "uint256",
          "name": "needed",
          "type": "uint256"
        }
      ],
      "name": "ERC20InsufficientAllowance",
      "type": "error"
    },
    {
      "inputs": [
        {
          "internalType": "address",
          "name": "sender",
          "type": "address"
        },
        {
          "internalType": "uint256",
          "name": "balance",
          "type": "uint256"
        },
        {
          "internalType": "uint256",
          "name": "needed",
          "type": "uint256"
        }
      ],
      "name": "ERC20InsufficientBalance",
      "type": "error"
    },
    {
      "inputs": [
        {
          "internalType": "address",
          "name": "approver",
          "type": "address"
        }
      ],
      "name": "ERC20InvalidApprover",
      "type": "error"
    },
    {
      "inputs": [
        {
          "internalType": "address",
          "name": "receiver",
          "type": "address"
        }
      ],
      "name": "ERC20InvalidReceiver",
      "type": "error"
    },
    {
      "inputs": [
        {
          "internalType": "address",
          "name": "sender",
          "type": "address"
        }
      ],
      "name": "ERC20InvalidSender",
      "type": "error"
    },
    {
      "inputs": [
        {
          "internalType": "address",
          "name": "spender",
          "type": "address"
        }
      ],
      "name": "ERC20InvalidSpender",
      "type": "error"
    },
    {
      "inputs": [
        {
          "internalType": "address",
          "name": "owner",
          "type": "address"
        }
      ],
      "name": "OwnableInvalidOwner",
      "type": "error"
    },
    {
      "inputs": [
        {
          "internalType": "address",
          "name": "account",
          "type": "address"
        }
      ],
      "name": "OwnableUnauthorizedAccount",
      "type": "error"
    },
    {
      "anonymous": false,
      "inputs": [
        {
          "indexed": true,
          "internalType": "address",
          "name": "owner",
          "type": "address"
        },
        {
          "indexed": true,
          "internalType": "address",
          "name": "spender",
          "type": "address"
        },
        {
          "indexed": false,
          "internalType": "uint256",
          "name": "value",
          "type": "uint256"
        }
      ],
      "name": "Approval",
      "type": "event"
    },
    {
      "anonymous": false,
      "inputs": [
        {
          "indexed": true,
          "internalType": "address",
          "name": "previousOwner",
          "type": "address"
        },
        {
          "indexed": true,
          "internalType": "address",
          "name": "newOwner",
          "type": "address"
        }
      ],
      "name": "OwnershipTransferred",
      "type": "event"
    },
    {
      "anonymous": false,
      "inputs": [
        {
          "indexed": true,
          "internalType": "address",
          "name": "from",
          "type": "address"
        },
        {
          "indexed": false,
          "internalType": "uint256",
          "name": "amount",
          "type": "uint256"
        }
      ],
      "name": "TokensBurned",
      "type": "event"
    },
    {
      "anonymous": false,
      "inputs": [
        {
          "indexed": true,
          "internalType": "address",
          "name": "to",
          "type": "address"
        },
        {
          "indexed": false,
          "internalType": "uint256",
          "name": "amount",
          "type": "uint256"
        }
      ],
      "name": "TokensMinted",
      "type": "event"
    },
    {
      "anonymous": false,
      "inputs": [
        {
          "indexed": true,
          "internalType": "address",
          "name": "from",
          "type": "address"
        },
        {
          "indexed": true,
          "internalType": "address",
          "name": "to",
          "type": "address"
        },
        {
          "indexed": false,
          "internalType": "uint256",
          "name": "value",
          "type": "uint256"
        }
      ],
      "name": "Transfer",
      "type": "event"
    },
    {
      "inputs": [
        {
          "internalType": "address",
          "name": "owner",
          "type": "address"
        },
        {
          "internalType": "address",
          "name": "spender",
          "type": "address"
        }
      ],
      "name": "allowance",
      "outputs": [
        {
          "internalType": "uint256",
          "name": "",
          "type": "uint256"
        }
      ],
      "stateMutability": "view",
      "type": "function"
    },
    {
      "inputs": [
        {
          "internalType": "address",
          "name": "spender",
          "type": "address"
        },
        {
          "internalType": "uint256",
          "name": "value",
          "type": "uint256"
        }
      ],
      "name": "approve",
      "outputs": [
        {
          "internalType": "bool",
          "name": "",
          "type": "bool"
        }
      ],
      "stateMutability": "nonpayable",
      "type": "function"
    },
    {
      "inputs": [
        {
          "internalType": "address",
          "name": "account",
          "type": "address"
        }
      ],
      "name": "balanceOf",
      "outputs": [
        {
          "internalType": "uint256",
          "name": "",
          "type": "uint256"
        }
      ],
      "stateMutability": "view",
      "type": "function"
    },
    {
      "inputs": [
        {
          "internalType": "uint256",
          "name": "amount",
          "type": "uint256"
        }
      ],
      "name": "burn",
      "outputs": [],
      "stateMutability": "nonpayable",
      "type": "function"
    },
    {
      "inputs": [],
      "name": "decimals",
      "outputs": [
        {
          "internalType": "uint8",
          "name": "",
          "type": "uint8"
        }
      ],
      "stateMutability": "view",
      "type": "function"
    },
    {
      "inputs": [
        {
          "internalType": "address",
          "name": "to",
          "type": "address"
        },
        {
          "internalType": "uint256",
          "name": "amount",
          "type": "uint256"
        }
      ],
      "name": "mint",
      "outputs": [],
      "stateMutability": "nonpayable",
      "type": "function"
    },
    {
      "inputs": [],
      "name": "name",
      "outputs": [
        {
          "internalType": "string",
          "name": "",
          "type": "string"
        }
      ],
      "stateMutability": "view",
      "type": "function"
    },
    {
      "inputs": [],
      "name": "owner",
      "outputs": [
        {
          "internalType": "address",
          "name": "",
          "type": "address"
        }
      ],
      "stateMutability": "view",
      "type": "function"
    },
    {
      "inputs": [],
      "name": "renounceOwnership",
      "outputs": [],
      "stateMutability": "nonpayable",
      "type": "function"
    },
    {
      "inputs": [],
      "name": "symbol",
      "outputs": [
        {
          "internalType": "string",
          "name": "",
          "type": "string"
        }
      ],
      "stateMutability": "view",
      "type": "function"
    },
    {
      "inputs": [],
      "name": "totalSupply",
      "outputs": [
        {
          "internalType": "uint256",
          "name": "",
          "type": "uint256"
        }
      ],
      "stateMutability": "view",
      "type": "function"
    },
    {
      "inputs": [
        {
          "internalType": "address",
          "name": "to",
          "type": "address"
        },
        {
          "internalType": "uint256",
          "name": "value",
          "type": "uint256"
        }
      ],
      "name": "transfer",
      "outputs": [
        {
          "internalType": "bool",
          "name": "",
          "type": "bool"
        }
      ],
      "stateMutability": "nonpayable",
      "type": "function"
    },
    {
      "inputs": [
        {
          "internalType": "address",
          "name": "from",
          "type": "address"
        },
        {
          "internalType": "address",
          "name": "to",
          "type": "address"
        },
        {
          "internalType": "uint256",
          "name": "value",
          "type": "uint256"
        }
      ],
      "name": "transferFrom",
      "outputs": [
        {
          "internalType": "bool",
          "name": "",
          "type": "bool"
        }
      ],
      "stateMutability": "nonpayable",
      "type": "function"
    },
    {
      "inputs": [
        {
          "internalType": "address",
          "name": "newOwner",
          "type": "address"
        }
      ],
      "name": "transferOwnership",
      "outputs": [],
      "stateMutability": "nonpayable",
      "type": "function"
    },
    {
      "inputs": [],
      "name": "withdrawETH",
      "outputs": [],
      "stateMutability": "nonpayable",
      "type": "function"
    },
    {
      "stateMutability": "payable",
      "type": "receive"
    }
  ],
  "bytecode": "0x608060405234801561000f575f5ffd5b5033604051806040016040528060098152602001682a29a5902a37b5b2b760b91b8152506040518060400160405280600381526020016254534b60e81b815250816003908161005e9190610314565b50600461006b8282610314565b5050506001600160a01b03811661009c57604051631e4fbdf760e01b81525f60048201526024015b60405180910390fd5b6100a5816100cd565b506100c8336100b66012600a6104c7565b6100c390620f42406104dc565b61011e565b610506565b600580546001600160a01b038381166001600160a01b0319831681179093556040519116919082907f8be0079c531659141344cd1fd0a4f28419497f9722a3daafe3b4186f6b6457e0905f90a35050565b6001600160a01b0382166101475760405163ec442f0560e01b81525f6004820152602401610093565b6101525f8383610156565b5050565b6001600160a01b038316610180578060025f82825461017591906104f3565b909155506101f09050565b6001600160a01b0383165f90815260208190526040902054818110156101d25760405163391434e360e21b81526001600160a01b03851660048201526024810182905260448101839052606401610093565b6001600160a01b0384165f9081526020819052604090209082900390555b6001600160a01b03821661020c5760028054829003905561022a565b6001600160a01b0382165f9081526020819052604090208054820190555b816001600160a01b0316836001600160a01b03167fddf252ad1be2c89b69c2b068fc378daa952ba7f163c4a11628f55a4df523b3ef8360405161026f91815260200190565b60405180910390a3505050565b634e487b7160e01b5f52604160045260245ffd5b600181811c908216806102a457607f821691505b6020821081036102c257634e487b7160e01b5f52602260045260245ffd5b50919050565b601f82111561030f57805f5260205f20601f840160051c810160208510156102ed5750805b601f840160051c820191505b8181101561030c575f81556001016102f9565b50505b505050565b81516001600160401b0381111561032d5761032d61027c565b6103418161033b8454610290565b846102c8565b6020601f821160018114610373575f831561035c5750848201515b5f19600385901b1c1916600184901b17845561030c565b5f84815260208120601f198516915b828110156103a25787850151825560209485019460019092019101610382565b50848210156103bf57868401515f19600387901b60f8161c191681555b50505050600190811b01905550565b634e487b7160e01b5f52601160045260245ffd5b6001815b600184111561041d57808504811115610401576104016103ce565b600184161561040f57908102905b60019390931c9280026103e6565b935093915050565b5f82610433575060016104c1565b8161043f57505f6104c1565b8160018114610455576002811461045f5761047b565b60019150506104c1565b60ff841115610470576104706103ce565b50506001821b6104c1565b5060208310610133831016604e8410600b841016171561049e575081810a6104c1565b6104aa5f1984846103e2565b805f19048211156104bd576104bd6103ce565b0290505b92915050565b5f6104d560ff841683610425565b9392505050565b80820281158282048414176104c1576104c16103ce565b808201808211156104c1576104c16103ce565b610bd6806105135f395ff3fe6080604052600436106100e7575f3560e01c806370a0823111610087578063a9059cbb11610057578063a9059cbb14610266578063dd62ed3e14610285578063e086e5ec146102c9578063f2fde38b146102dd575f5ffd5b806370a08231146101e3578063715018a6146102175780638da5cb5b1461022b57806395d89b4114610252575f5ffd5b806323b872dd116100c257806323b872dd14610169578063313ce5671461018857806340c10f19146101a357806342966c68146101c4575f5ffd5b806306fdde03146100f2578063095ea7b31461011c57806318160ddd1461014b575f5ffd5b366100ee57005b5f5ffd5b3480156100fd575f5ffd5b506101066102fc565b6040516101139190610a19565b60405180910390f35b348015610127575f5ffd5b5061013b610136366004610a7f565b61038c565b6040519015158152602001610113565b348015610156575f5ffd5b506002545b604051908152602001610113565b348015610174575f5ffd5b5061013b610183366004610aa7565b6103a5565b348015610193575f5ffd5b5060405160128152602001610113565b3480156101ae575f5ffd5b506101c26101bd366004610a7f565b6103c8565b005b3480156101cf575f5ffd5b506101c26101de366004610ae1565b6104cb565b3480156101ee575f5ffd5b5061015b6101fd366004610af8565b6001600160a01b03165f9081526020819052604090205490565b348015610222575f5ffd5b506101c26105af565b348015610236575f5ffd5b506005546040516001600160a01b039091168152602001610113565b34801561025d575f5ffd5b506101066105c2565b348015610271575f5ffd5b5061013b610280366004610a7f565b6105d1565b348015610290575f5ffd5b5061015b61029f366004610b18565b6001600160a01b039182165f90815260016020908152604080832093909416825291909152205490565b3480156102d4575f5ffd5b506101c26105de565b3480156102e8575f5ffd5b506101c26102f7366004610af8565b610612565b60606003805461030b90610b49565b80601f016020809104026020016040519081016040528092919081815260200182805461033790610b49565b80156103825780601f1061035957610100808354040283529160200191610382565b820191905f5260205f20905b81548152906001019060200180831161036557829003601f168201915b5050505050905090565b5f3361039981858561064c565b60019150505b92915050565b5f336103b285828561065e565b6103bd8585856106da565b506001949350505050565b6103d0610737565b6001600160a01b03821661042b5760405162461bcd60e51b815260206004820152601b60248201527f63616e6e6f74206d696e7420746f207a65726f2061646472657373000000000060448201526064015b60405180910390fd5b5f811161047a5760405162461bcd60e51b815260206004820152601d60248201527f616d6f756e74206d7573742062652067726561746572207468616e20300000006044820152606401610422565b6104848282610764565b816001600160a01b03167f3f2c9d57c068687834f0de942a9babb9e5acab57d516d3480a3c16ee165a4273826040516104bf91815260200190565b60405180910390a25050565b5f811161051a5760405162461bcd60e51b815260206004820152601d60248201527f616d6f756e74206d7573742062652067726561746572207468616e20300000006044820152606401610422565b335f9081526020819052604090205481111561056d5760405162461bcd60e51b81526020600482015260126024820152710c4c2d8c2dcc6ca40dcdee840cadcdeeaced60731b6044820152606401610422565b610577338261079c565b60405181815233907ffd38818f5291bf0bb3a2a48aadc06ba8757865d1dabd804585338aab3009dcb69060200160405180910390a250565b6105b7610737565b6105c05f6107d0565b565b60606004805461030b90610b49565b5f336103998185856106da565b6105e6610737565b60405133904780156108fc02915f818181858888f1935050505015801561060f573d5f5f3e3d5ffd5b50565b61061a610737565b6001600160a01b03811661064357604051631e4fbdf760e01b81525f6004820152602401610422565b61060f816107d0565b6106598383836001610821565b505050565b6001600160a01b038381165f908152600160209081526040808320938616835292905220545f198110156106d457818110156106c657604051637dc7a0d960e11b81526001600160a01b03841660048201526024810182905260448101839052606401610422565b6106d484848484035f610821565b50505050565b6001600160a01b03831661070357604051634b637e8f60e11b81525f6004820152602401610422565b6001600160a01b03821661072c5760405163ec442f0560e01b81525f6004820152602401610422565b6106598383836108f3565b6005546001600160a01b031633146105c05760405163118cdaa760e01b8152336004820152602401610422565b6001600160a01b03821661078d5760405163ec442f0560e01b81525f6004820152602401610422565b6107985f83836108f3565b5050565b6001600160a01b0382166107c557604051634b637e8f60e11b81525f6004820152602401610422565b610798825f836108f3565b600580546001600160a01b038381166001600160a01b0319831681179093556040519116919082907f8be0079c531659141344cd1fd0a4f28419497f9722a3daafe3b4186f6b6457e0905f90a35050565b6001600160a01b03841661084a5760405163e602df0560e01b81525f6004820152602401610422565b6001600160a01b03831661087357604051634a1406b160e11b81525f6004820152602401610422565b6001600160a01b038085165f90815260016020908152604080832093871683529290522082905580156106d457826001600160a01b0316846001600160a01b03167f8c5be1e5ebec7d5bd14f71427d1e84f3dd0314c0f7b2291e5b200ac8c7c3b925846040516108e591815260200190565b60405180910390a350505050565b6001600160a01b03831661091d578060025f8282546109129190610b81565b9091555061098d9050565b6001600160a01b0383165f908152602081905260409020548181101561096f5760405163391434e360e21b81526001600160a01b03851660048201526024810182905260448101839052606401610422565b6001600160a01b0384165f9081526020819052604090209082900390555b6001600160a01b0382166109a9576002805482900390556109c7565b6001600160a01b0382165f9081526020819052604090208054820190555b816001600160a01b0316836001600160a01b03167fddf252ad1be2c89b69c2b068fc378daa952ba7f163c4a11628f55a4df523b3ef83604051610a0c91815260200190565b60405180910390a3505050565b602081525f82518060208401525f5b81811015610a455760208186018101516040868401015201610a28565b505f604082850101526040601f19601f83011684010191505092915050565b80356001600160a01b0381168114610a7a575f5ffd5b919050565b5f5f60408385031215610a90575f5ffd5b610a9983610a64565b946020939093013593505050565b5f5f5f60608486031215610ab9575f5ffd5b610ac284610a64565b9250610ad060208501610a64565b929592945050506040919091013590565b5f60208284031215610af1575f5ffd5b5035919050565b5f60208284031215610b08575f5ffd5b610b1182610a64565b9392505050565b5f5f60408385031215610b29575f5ffd5b610b3283610a64565b9150610b4060208401610a64565b90509250929050565b600181811c90821680610b5d57607f821691505b602082108103610b7b57634e487b7160e01b5f52602260045260245ffd5b50919050565b8082018082111561039f57634e487b7160e01b5f52601160045260245ffdfea26469706673582212201144824b26f7dc337efe1c4799deb6835cb9ddfd1591b4bc6946cab46eb1876e64736f6c634300081c0033",
  "linkReferences": {},
  "deployedLinkReferences": {},
  "immutableReferences": {},
  "inputSourceName": "project/contracts/TSKToken.sol",
  "buildInfoId": "solc-0_8_28-dd78af150cb1b2d01871abf664c71c7abec9e391"
}